:100000000C945E000C9486000C9486000C94860080
:100010000C9486000C9486000C9486000C94860048
:100020000C9486000C9486000C9486000C940604B4
:100030000C9486000C9401050C9486000C948600A8
:100040000C94BC030C9486000C9486000C948600DF
:100050000C9486000C9486000C9486000C94860008
:100060000C9486000C9486000000000024002700F9
:100070002A0000000000250028002B0004040404CE
:100080000404040402020202020203030303030342
:10009000010204081020408001020408102001021F
:1000A00004081020000000080002010000030407FB
:1000B0000000000000000000E308EC0811241FBE4F
:1000C000CFEFD8E0DEBFCDBF11E0A0E0B1E0E8EABD
:1000D000F4E102C005900D92AA32B107D9F721E0F0
:1000E000AAE2B1E001C01D92AE38B207E1F710E01C
:1000F000CDE5D0E004C02197FE010E941109CC3566
:10010000D107C9F70E949B050C94470A0C94000084
:100110009FB7F894EFE6F0E080818E7F8083B09AFD
:100120009FBF08959FB7F89480912A018E7F809396
:100130002A0180912A01826080932A019FBF109238
:100140002D0110922C01109237011092360120914E
:100150002E0130912F013093310120933001809195
:10016000340190913501820F931F90933301809356
:10017000320180913F0190914001A0914101B091E5
:100180004201892B8A2B8B2B69F18091430190913D
:100190004401A0914501B09146010090710104C055
:1001A000880F991FAA1FBB1F0A94D2F740918201A2
:1001B000509183016091840170918501840F951F96
:1001C000A61FB71F8093470190934801A093490150
:1001D000B0934A0110924B0110924C0110924D01C4
:1001E00010924E01089590E0FC01EC55FF4F2491D0
:1001F000FC01E057FF4F3491FC01E458FF4FE491BC
:10020000EE2309F43CC0222339F1233091F038F475
:100210002130A9F0223001F584B58F7D12C027303E
:1002200091F02830A1F02430B9F4809180008F7DC6
:1002300003C0809180008F77809380000DC084B5CB
:100240008F7784BD09C08091B0008F7703C0809103
:10025000B0008F7D8093B000F0E0EE0FFF1FEE58EE
:10026000FF4FA591B4919FB7F894611104C08C9190
:100270003095382302C0EC913E2B3C939FBF0895EC
:10028000CF93DF9390E0FC01E057FF4F2491FC01F6
:10029000E458FF4F8491882361F190E0880F991F03
:1002A000FC01E859FF4FC591D491FC01EE58FF4F76
:1002B000A591B491611109C09FB7F89488812095E8
:1002C00082238883EC912E230BC0623061F49FB7A8
:1002D000F8948881322F309583238883EC912E2BDC
:1002E0002C939FBF06C08FB7F894E8812E2B2883EC
:1002F0008FBFDF91CF9108952FB7F8946091580187
:100300007091590180915A0190915B012FBF08951E
:100310008EBD0DB407FEFDCF8DB58F778DBD0895D1
:1003200061E0809151010E94F3008FEF0C948801ED
:100330008FEF8EBD0DB407FEFDCF8DB58F778DBDD0
:100340008EB50895DF92EF92FF920F931F93CF9394
:10035000DF93C82FD42FF52EE62ED72E60E08091A4
:1003600051010E94F3000E947C018B010E949801C0
:100370008F3F99F48C2F80640E9488018D2D0E94FC
:1003800088018E2D0E9488018F2D0E9488018D2F5B
:100390000E948801CC23E1F008C00E947C01601B10
:1003A000710B6C32714010F3E5CFC83011F487E85F
:1003B00001C08FEF0E948801CC3011F40E94980197
:1003C000C4E60E9498018F3F39F4C150D1F704C0B0
:1003D00085E90E948801F4CFDF91CF911F910F91A1
:1003E000FF90EF90DF900895FF920F931F93CF93AC
:1003F000DF93F42ED52F20915201233039F029E0DC
:10040000660F771F881F991F2A95D1F7AB01BC0192
:1004100081E10E94A201C82F882321F00E9490014F
:10042000C9E033C00E947C018B010E9498018F3F7C
:1004300059F40E947C01601B710B6D327140A8F36E
:100440000E949001C7E021C08E3F21F00E949001E0
:10045000C8E01BC08FEF8EBDEF2DFD2FDF01A15037
:10046000BE4F0DB407FEFDCF9EB591938EBDEA172A
:10047000FB07B9F70DB407FEFDCF8EB58C930E9434
:1004800098010E9498010E9490018C2FDF91CF91DA
:100490001F910F91FF9008952F923F924F925F927C
:1004A0006F927F928F929F92AF92BF92CF92DF9284
:1004B000EF92FF920F931F93CF93DF93CDB7DEB7E9
:1004C0002E970FB6F894DEBF0FBECDBF8C01809182
:1004D0002E0190912F01892B11F482E8C7C00E9450
:1004E000920010923F01109240011092410110922F
:1004F000420150905E018EEF850D823008F0B5C04C
:1005000060905F0180917E0190917F012091800138
:100510003091810142E0541611F0712C1AC06090A4
:10052000630170906401A30160E070E0E5E0440FB6
:10053000551F661F771FEA95D1F741505E4F6F4FE9
:100540007F4FF9E07695679557954795FA95D1F7DE
:100550003A01309071016E01ACE0CA0ED11CFE016F
:10056000319640E24193CE16DF06E1F7A801475FDE
:100570005F4FFE0131960F5F1F4FD80111976C91AD
:10058000603220F4F801DE01199615C06E32D1F305
:100590007FE9760F7A3108F4605261934017510772
:1005A00051F7F0CF5FE9540F5A3108F440524D93A0
:1005B000CA16DB0619F041914032A0F71C864C01A7
:1005C0005901E12CF12C65EE462E22C000915C0110
:1005D00010915D01A801C501B4010E94F4018111CF
:1005E00045C0F80140E050E080818823A9F0853EB5
:1005F000A9F4405E5F4FB0964115B2E05B07A1F7EA
:100600004FEFE41AF40A8FEF881A980AA80AB80A7A
:100610006E147F04D9F624C085E328C0853009F420
:1006200040822384822D887121F7BFE02B1609F3C5
:10063000CE0101969E878D879F01D9016D919D0105
:10064000AD85BE858D91BE87AD8770E0082E000C0C
:10065000990B6817790769F6CA16DB0671F70AC0A5
:1006600092E05916C9F284E301C083E380934F01FD
:1006700080E069C020923E01F801E40FF51F258D4E
:10068000868D90E0A0E0B0E0DC0199278827922BCE
:10069000248D822B278DB22B80933F0190934001B4
:1006A000A0934101B0934201A2E05A120BC0838D86
:1006B00090E0A0E0B0E0BA2FA92F982F8827228DD4
:1006C000822B0DC0238D848990E0A0E0B0E0DC0196
:1006D00099278827922B228D822B2589B22B8093F4
:1006E000430190934401A0934501B093460180914A
:1006F000430190914401A0914501B091460104C08D
:10070000880F991FAA1FBB1F3A94D2F7409182010C
:10071000509183016091840170918501840F951F30
:10072000A61FB71F8093470190934801A0934901EA
:10073000B0934A0110924B0110924C0110924D015E
:1007400010924E0181E02E960FB6F894DEBF0FBED8
:10075000CDBFDF91CF911F910F91FF90EF90DF9070
:10076000CF90BF90AF909F908F907F906F905F9051
:100770004F903F902F9008951F920F920FB60F92B7
:1007800011242F933F938F939F93AF93BF938091A7
:10079000580190915901A0915A01B0915B0130919B
:1007A000570123E0230F2D3720F40196A11DB11D21
:1007B00005C026E8230F0296A11DB11D2093570105
:1007C0008093580190935901A0935A01B0935B0113
:1007D0008091530190915401A0915501B09156011F
:1007E0000196A11DB11D8093530190935401A093D4
:1007F0005501B0935601BF91AF919F918F913F9159
:100800002F910F900FBE0F901F9018951F920F926F
:100810000FB60F9211240F931F932F933F934F9373
:100820005F936F937F938F939F93AF93BF93CF9378
:10083000EF93FF9380916F008D7F80936F00809185
:1008400050018111CAC07894809150018111C5C0B6
:1008500080912E0190912F01892B09F4BEC08091C7
:100860003F0190914001A0914101B0914201892B3B
:100870008A2B8B2B09F4B1C081E0809350012FB7F4
:10088000F89480912C0190912D012FBF00914B0184
:1008900010914C0120914D0130914E0140913F014A
:1008A0005091400160914101709142010417150778
:1008B0002607370708F08BC02091380130913901A5
:1008C0008217930708F087C0809136019091370115
:1008D00040912E0150912F01480F591F60914701FF
:1008E000709148018091490190914A018B019C01CE
:1008F0000F5F1F4F2F4F3F4F009347011093480149
:100900002093490130934A010E94F401C82F8111BC
:1009100059C040914B0150914C0160914D01709133
:100920004E0180913F0190914001A0914101B09111
:100930004201841B950BA60BB70B20913601309119
:1009400037013E5F30933701209336015E5F6F4F72
:100950007F4F40934B0150934C0160934D01709336
:100960004E01209136013091370140913401509170
:1009700035012417350750F02091360130913701A9
:10098000241B350B3093370120933601811522E06B
:100990009207A105B10540F02FB7F89480912C0182
:1009A00090912D019E5F08C02FB7F89440912C01C3
:1009B00050912D01840F951F90932D0180932C0150
:1009C0002FBF09C00E949200C0934F0104C002973C
:1009D00010F40E94920010925001FF91EF91CF917C
:1009E000BF91AF919F918F917F916F915F914F9147
:1009F0003F912F911F910F910F900FBE0F901F905D
:100A000018950F930FB70F931F9300912A0100FFC2
:100A10008DC003FF04C010E1012704FF85C0AF9320
:100A2000BF93A0912C01B0912D0107FF1BC014971B
:100A300008F467C0A0932C01B0932D0110E010932F
:100A40008900A0913001B09131011D91109388006F
:100A50001D9110938A001D91109347001D911093D2
:100A600048002BC005FF15C0129708F44AC0A09398
:100A70002C01B0932D0110E010938900A09130015A
:100A8000B09131011D91109388001D9110938A003F
:100A900014C0119708F435C0A0932C01B0932D0118
:100AA00010E010938900A0913001B09131011D91A7
:100AB0001093880006FD10938A002F931091320145
:100AC00020913301A117B20730F010913401209129
:100AD0003501A11BB20BA0933001B0933101B0914D
:100AE0002B01B17061F0B0913A01BA9531F4B0E2E6
:100AF00020916F00226020936F00B0933A012F91F4
:100B000011C00460B0912B01B17061F0B0913A0155
:100B1000BA9531F4B0E2A0916F00A260A0936F008B
:100B2000B0933A01BF91AF9100932A011F910F91A9
:100B30000FBF0F911895789484B5826084BD84B5F9
:100B4000816084BD85B5826085BD85B5816085BDC8
:100B500080916E00816080936E0010928100809180
:100B60008100826080938100809181008160809308
:100B70008100809180008160809380008091B1002D
:100B800084608093B1008091B00081608093B00058
:100B900080917A00846080937A0080917A008260EC
:100BA00080937A0080917A00816080937A008091AE
:100BB0007A00806880937A001092C10084E080936C
:100BC0005101109250018091800080933C018091EE
:100BD000810080933D0180912E0190912F0100971B
:100BE00099F480E094E090933501809334010E9461
:100BF000260990932F0180932E01009721F021E088
:100C000020933B0101C066C0382F292F8091340109
:100C100090913501811504E0900708F45BC08827A6
:100C20009E7F9093350180933401925090933901C7
:100C30008093380110925E0130935C0120935D0136
:100C40000E947C016B017C011092520161E084E002
:100C50000E94400161E084E00E94F30060E08CE0CB
:100C60000E94400161E08DE00E94400161E08BE064
:100C70000E94400161E08AE00E94400160E08DE056
:100C80000E94F30060E08BE00E94F30061E08AE0E4
:100C90000E94F30083E58CBD8DB58E7F8DBD0E94D3
:100CA0009001CAE08FEF0E948801C150D9F7E60198
:100CB00040E050E0BA0180E00E94A201182F81308C
:100CC00051F00E947C016C1B7D0B613D774080F3ED
:100CD0000E949001FFCF4AEA51E060E070E088E0B6
:100CE0000E94A20182FF03C01093520115C00E940E
:100CF00098010E9498010E94980180FD03C00E9403
:100D00009001E8CF0E9498018A3A19F00E94900160
:100D1000E1CF82E08093520140E050E0BA018BE3E2
:100D20000E94A20110915201123031F4C12CD12C39
:100D3000E12CF0E4FF2E03C0C12CD12C760140E061
:100D400050E0BA0187E30E94A201B701A60189E23F
:100D50000E94A201882351F00E947C016C1B7D0B34
:100D6000613D774060F30E949001B4CF1230C9F426
:100D700040E050E0BA018AE30E94A201882319F002
:100D80000E949001A7CF0E949801807C803C19F4BA
:100D900083E0809352010E9498010E9498010E9472
:100DA000980140E052E060E070E080E10E94A20122
:100DB000882319F00E9490018DCF0E9490018CB57C
:100DC0008C7F8CBD8DB581608DBDC0915C01D09153
:100DD0005D01AE0160E070E0CB010E94F401811181
:100DE000EAC17E0132E0E31A3EEFF30AF7018081A7
:100DF000853509F06FCF8E0101501E4FF8018081BB
:100E00008A3A09F067CFFD978081349640815181FD
:100E100062817381409376015093770160937801EA
:100E200070937901389790819F7781F425EF280F8F
:100E3000982F9D7F943021F0223010F08E3031F4C5
:100E4000223010F483E00BC082E009C010927601DA
:100E500010927701109278011092790181E08093CD
:100E60005E018090760190907701A0907801B0901B
:100E70007901AE01C501B4010E94F40181119CC148
:100E8000F7018081853509F025CFF80180818A3A04
:100E9000D9F71B851111F8CF8C858230A9F78D8980
:100EA000883F91F70D8500935F018E859F85909314
:100EB000610180936001002339F3009729F3A88929
:100EC000A0936201E989FA89F0936401E0936301D8
:100ED000CB88DC8858A149A13AA12BA1C114D10427
:100EE00019F0E12CF12C04C0C52ED42EE32EF22EE5
:100EF000C0926501D0926601E0926701F0926801AC
:100F00002E893F897CA0BDA17EA16FA1211531054D
:100F100019F040E050E004C0272D3B2F472F562FFB
:100F20002093690130936A0140936B0150936C01E7
:100F300024013501480E591E611C711C40927A0132
:100F400050927B0160927C0170927D01B0E00E9422
:100F50000609460E571E681E791E40927E01509269
:100F60007F016092800170928101202E312CAF01AF
:100F700060E070E025E0440F551F661F771F2A953B
:100F8000D1F741505E4F6F4F7F4F39E076956795AF
:100F9000579547953A95D1F79101220F331FC90113
:100FA000330FAA0BBB0B481B590B6A0B7B0B440E70
:100FB000551E661E771E40928201509283016092F8
:100FC00084017092850121E030E0A12FA901012E5A
:100FD00002C0440F551F0A94E2F72416350621F08B
:100FE0001F5FA83091F750CF10937101C80CD91C26
:100FF000EA1CFB1CC418D508E608F70804C0F694E0
:10100000E794D794C7941A95D2F7C0927201D09200
:101010007301E0927401F0927501F5EFCF16FFE0D5
:10102000DF06E104F10408F455CE05EFC0160FEF1A
:10103000D006E104F10440F482E080935E0188EF81
:101040009FEFA0E0B0E020C04CA55DA56EA57FA5F8
:101050008A019B0104C0000F111F221F331FAA9594
:10106000D2F7400E511E621E731E40927E015092B6
:101070007F01609280017092810183E080935E0124
:1010800088EF9FEFAFEFBFE08093860190938701D9
:10109000A0938801B093890110922A0110922B012C
:1010A0000E94920080912B01816080932B010E940D
:1010B000880060E089E00E94F30061E089E00E941E
:1010C000400181E88093800089E080938100109244
:1010D000890080E58093880080938A009FB7F89408
:1010E00080916F00816080936F00B09A9FBF1092D3
:1010F0003F01109240011092410110924201C0E064
:10110000D0E003E010E0EE24E394F12C92E0C92E4D
:10111000D12C80910001909101018230910589F0DC
:1011200083309105D1F0019719F588E091E00E9494
:101130004C02811101C0FFCFD0920101C092000189
:1011400017C083E191E00E944C02811101C0FFCFE2
:1011500010930101009300010BC08EE191E00E9409
:101160004C02811101C0FFCFF0920101E092000119
:1011700080913F0190914001A0914101B0914201C5
:10118000892B8A2B8B2B91F080912A0180FD0E9464
:1011900092009FB7F89480912A01816080932A0180
:1011A00080912A018D7F80932A019FBF80912A011F
:1011B00081FD03C0FBCF8ECD8DCD209709F4A9CF43
:1011C0000E940000A6CFEAE2F1E015821482118AA3
:1011D00084E08093510108950E9492000E9488004B
:1011E0008FB7F89490913C01909380008FBF8091CD
:1011F0003D018093810080913B01882331F08091F3
:101200002E0190912F010C94BE0908950E94170998
:10121000A59F900DB49F900DA49F800D911D11244A
:101220000895EE0FFF1F0590F491E02D0994A29F01
:10123000B001B39FC001A39F700D811D1124911DAA
:10124000B29F700D811D1124911D08950F931F935E
:10125000CF93DF938230910510F482E090E0E0912B
:101260008C01F0918D0120E030E0A0E0B0E03097FB
:1012700019F1408151810281138148175907C8F043
:101280008417950769F4109731F012960C93129712
:1012900013961C9327C000938C0110938D0122C0DC
:1012A0002115310519F04217530718F49A01BD01B1
:1012B000EF01DF01F801DBCF21153105F9F0281B23
:1012C000390B2430310580F48A819B8161157105C9
:1012D00021F0FB019383828304C090938D0180935E
:1012E0008C01FE01329644C0FE01E20FF31F819390
:1012F000919322503109398328833AC020918A0181
:1013000030918B01232B41F4209104013091050190
:1013100030938B0120938A012091020130910301C7
:101320002115310541F42DB73EB74091060150918A
:101330000701241B350BE0918A01F0918B01E21724
:10134000F307A0F42E1B3F0B2817390778F0AC01E8
:101350004E5F5F4F2417350748F04E0F5F1F5093C5
:101360008B0140938A018193919302C0E0E0F0E009
:10137000CF01DF91CF911F910F910895CF93DF930C
:10138000009709F481C0FC01329713821282A09168
:101390008C01B0918D01109781F420813181820FF1
:1013A000931F20918A0130918B012817390751F53D
:1013B000F0938B01E0938A0167C0ED0120E030E0FB
:1013C000CE17DF0740F44A815B819E01411551052C
:1013D000F1F0EA01F5CFD383C28340815181840FBC
:1013E000951FC817D90759F488819981840F951FD3
:1013F0000296918380838A819B81938382832115C6
:10140000310529F4F0938D01E0938C013DC0E90191
:10141000FB83EA8349915991C40FD51FEC17FD074F
:1014200061F480819181840F951F0296E90199836F
:101430008883828193819B838A83E0E0F0E0129627
:101440008D919C911397009719F0FD01DC01F7CF66
:101450008D919C9111979D012E5F3F4F820F931F9D
:1014600020918A0130918B012817390769F4309750
:1014700029F410928D0110928C0102C01382128205
:10148000B0938B01A0938A01DF91CF91089510E072
:10149000CDE5D0E004C0FE010E9411092196CE35B1
:0814A000D107C9F7F894FFCF52
:1014A800010000008E0180006D75736963312E772D
:1014B8006176006D75736963322E776176006D759C
:0A14C800736963332E77617600002C
:00000001FF
